:100000000C943A010C9459010C9459010C94590127
:100010000C9459010C9459010C9459010C945901F8
:100020000C9459010C9459010C9459010C945901E8
:100030000C9459010C9459010C9459010C945901D8
:100040000C9459010C94DF010C9459010C94590142
:100050000C9459010C9459010C9459010C945901B8
:100060000C9459010C9459010C9459010C945901A8
:100070000C9459010C9459010C9459010C94590198
:100080000C9459010C9459010C9459010C94590188
:100090000C9459010C945901000000000000005F0D
:1000A00000000003000300143E143E14242A7F2A9B
:1000B000124333086661364955225000050300009B
:1000C000001C2241000041221C0014083E081408B4
:1000D000083E0808005030000008080808080060C2
:1000E00060000020100804023E5149453E00040211
:1000F0007F00426151494622414949361814127F16
:100100001027454545393E494949320101710907E2
:100110003649494936264949493E003636000000ED
:10012000563600000814224100141414141400411F
:1001300022140802015109063E4159555E7E090903
:10014000097E7F494949363E414141227F41414133
:100150003E7F494949417F090909013E4141493AE8
:100160007F0808087F00417F4100304040403F7FCA
:10017000081422417F404040407F020C027F7F02F2
:1001800004087F3E4141413E7F090909061E2121A5
:10019000215E7F09090976264949493201017F011B
:1001A000013F4040403F1F2040201F7F2010207F04
:1001B00041221C224107087008076151494543004C
:1001C0007F41000002040810200000417F0004026B
:1001D0000102044040404040000102040020545409
:1001E00054787F4444443838444444443844444474
:1001F0007F385454541804047E0505085454543C64
:100200007F0804047800447D40002040443D007F86
:100210001028440000417F40007C047804787C086A
:1002200004047838444444387C1414140808141422
:10023000147C007C080404485454542004043F44B3
:10024000443C4040207C1C2040201C3C4030403C32
:1002500044281028440C5050503C4464544C4400F2
:100260000836414100007F0000414136080002018C
:100270000204020011241FBECFEFD0E2DEBFCDBFCB
:1002800011E0A0E0B1E0EEE3F2E100E00BBF02C05C
:1002900007900D92AE34B107D9F722E0AEE4B1E099
:1002A00001C01D92A537B207E1F70E947C070C94AC
:1002B0001D090C940000CF93DF93EC0170E060E027
:1002C00087EA98ED0E945A078EE291E09F938F9300
:1002D0000E94D2028FE39CE90197F1F700C0000071
:1002E00070E060E087EA98ED0E945A0783E391E0AE
:1002F0009F938F930E94D2020F900F900F900F90B8
:10030000CE010196DF91CF910895CF93DF93EC0159
:1003100070E060E080EA9EEF0E945A0788E391E077
:100320009F938F930E94D2022FEF85EA9EE0215087
:1003300080409040E1F700C0000070E060E080EA9B
:100340009EEF0E945A078DE391E09F938F930E9446
:10035000D2020F900F900F900F90CE010196DF9177
:10036000CF910895CF93DF93EC0170E060E081E5D9
:1003700094E00E945A0782E491E09F938F930E9439
:10038000D2022FEF83ED90E3215080409040E1F7BF
:1003900000C0000070E060E081E594E00E945A0730
:1003A00087E491E09F938F930E94D2020F900F9069
:1003B0000F900F90CE010196DF91CF9108951F927B
:1003C0000F920FB60F9211240BB60F92CF92DF92BD
:1003D000EF92FF920F931F932F933F934F935F934F
:1003E0006F937F938F939F93AF93BF93CF93DF933D
:1003F000EF93FF9310E00DE0DD24D394CC24CA9456
:10040000E12EF12C80911501082E000C990B8E1510
:100410009F054CF570E060E08BE494E30E945A077E
:100420008CE491E09F938F930E94D2020F900F90E3
:10043000FF91EF91DF91CF91BF91AF919F918F91FC
:100440007F916F915F914F913F912F911F910F91EC
:10045000FF90EF90DF90CF900F900BBE0F900FBEEC
:100460000F901F9018950E9DE0010F9DD00D112447
:10047000CF5ADE4F4F81588569857A858B819C8163
:10048000AD81BE81481759076A077B0780F1E0916B
:100490005001F0E0E050FF4F8081181740F588814F
:1004A000811125C02F98F8941F82188619861A8604
:1004B000D882E0915001EF5FE0935001F0E0E0500E
:1004C000FF4F10837894EB85FC8589819A8109958B
:1004D0009A838983F894188280915001E82FF0E084
:1004E000E050FF4FC08281508093500178940E9D60
:1004F000F0010F9DF00D1124EF5AFE4F878190857A
:10050000A185B2854996A11DB11D87839087A187DA
:10051000B2871F5F75CF8DE08093810084E39CE0FC
:10052000909389008093880082E080936F001092FE
:100530008500109284000895E0916502F0916602B2
:100540009F012F5F3F4F30936602209365028083A7
:10055000089590E38A302CF090915602911108C0D2
:1005600097E5890F0E949C0281E0809355020895CF
:1005700097E3F7CFAC01209157023091580280E009
:100580002417350750F43093580220935702909166
:100590005502982B31F00C94A902241B350B8F5F68
:1005A000EFCF08957F928F929F92AF92BF92CF929A
:1005B000DF92EF92FF920F931F93CF93DF93CDB70C
:1005C000DEB7FE017096E190F1908F0139E5A32E20
:1005D00032E0B32EF701808181110EC0DF91CF91FF
:1005E0001F910F91FF90EF90DF90CF90BF90AF9051
:1005F0009F908F907F900895853231F02FEFE21A0F
:10060000F20A0E947C06E6CFF7018181803301F176
:10061000F2E0EF0EF11C712C90ED980F912C9A30B6
:1006200040F1B0926602A0926502109255028336A4
:1006300009F473C01CF5853209F4A1C0883509F4AA
:1006400053C0882359F229E5C22E22E0D22E73C06E
:10065000828197012D5F3F4F790177247394DCCF1E
:10066000892D880F880F980E990C990EF7018191AA
:100670007F0190ED980F9A3098F3D3CF833709F428
:1006800056C06CF58436F9F6F801219131918F014D
:100690003093580220935702843661F437FF0AC022
:1006A00031952195310930935802209357028DE2FC
:1006B0000E949C0280E197E20E94BA0288EE93E0D9
:1006C0000E94BA0284E690E00E94BA028AE090E0BA
:1006D0000E94BA02809157020E94A902B4CF8537C6
:1006E00099F2883709F0AFCF91E0883509F090E0B2
:1006F00090935602F801819191918F019093580245
:100700008093570280E090E10E94BA0280E091E07D
:100710000E94BA0280E190E0DBCF6801F2E0CF0EE8
:10072000D11CF80180810E949C0286018CCFF801C7
:10073000C190D1908F01E0916502F0916602108224
:10074000C601FC01892C99249A94980C2081019669
:10075000211119C0909366028093650290E3992E4F
:10076000711002C080E2982E181484F0F601819175
:100770006F01882309F42ECF0E947C06F7CF85E213
:100780000E949C0260CF1814E4F2E4CF892D0E94ED
:100790007C068A94E9CF0C947C0693E89093B00091
:1007A00091E09093B1008093B30008959C019093E1
:1007B0006C0280936B0286E390E0809300402115E9
:1007C0003105A9F580EF90E090936802809367026D
:1007D00080E491E090936A028093690288E490E05B
:1007E000809300418AE290E08093004030E020E076
:1007F00030930041209300418091670290916802FC
:10080000019790930041809300418BE290E08093A8
:100810000040309300412093004180916902909103
:100820006A0201979093004180930041089521301E
:10083000310579F480E491E0909368028093670237
:1008400080EF90E090936A028093690288EE90E0D6
:10085000C7CF2230310579F480EF90E090936802A1
:100860008093670280E491E090936A02809369022A
:1008700088E890E0B5CF2330310509F0B3CF80E4AC
:1008800091E0909368028093670280EF90E09093EC
:100890006A028093690288E290E0A2CFCF93DF934F
:1008A00000D000D00F92CDB7DEB7873708F044C034
:1008B000883008F444C08D3308F03FC08F3108F011
:1008C00042C0803108F442C022E02D8321EB30E0A9
:1008D000209300409D8190930041282F30E050E00C
:1008E00040E029833A834B835C83CA01B9010E94AB
:1008F00091089B01AC0160E070E080EF94E40E94FD
:10090000EE0769837A838B839C8369817A818B81EB
:100910009C810E94600870E00D8002C0759567950B
:100920000A94E2F7609300410F900F900F900F90A0
:100930000F90DF91CF91089586E71D82C7CF88E0A1
:1009400033E03D83C3CF41E04D83C0CF53E05D83AF
:10095000BDCF0F931F93CF93DF93CDB7DEB728970B
:100960000FB6F894DEBF0FBECDBF29833A834B8309
:100970005C836D837E838F839887A801E981FA81E8
:100980002B813C816D817E818F819885AAE2B0E0C8
:10099000A0930040F0930041E09300413093004168
:1009A00020930041ABE2B0E0A0930040709300417F
:1009B000609300419093004180930041ACE2B0E02D
:1009C000A09300402F5F3F4F2E1B3F0B0196861BCD
:1009D000970B2817390750F5E82FE770E29FB00111
:1009E000E39F700D1124F3E096958795FA95E1F752
:1009F000829FF001839FF00D1124962F97709150E4
:100A000038F5CB0123E0969587952A95E1F78E0F6F
:100A10009F1F009711F528960FB6F894DEBF0FBE02
:100A2000CDBFDF91CF911F910F910895E22FE77015
:100A3000E89FB001E99F700D1124E3E036952795FA
:100A4000EA95E1F7289FF001299FF00D1124D5CFF9
:100A50005093004140930041D2CF509300414093C6
:100A60000041509300414093004150930041409316
:100A70000041509300414093004150930041409306
:100A800000415093004140930041509300414093F6
:100A9000004150930041409300410197BACF0F931A
:100AA0001F93CF93DF93CDB7DEB728970FB6F89497
:100AB000DEBF0FBECDBF29833A834B835C836D833A
:100AC0007E838F83988789819A814B815C816D8138
:100AD0007E81AF81B8852AE230E020930040909378
:100AE00000418093004150930041409300412BE22C
:100AF00030E0209300407093004160930041B09338
:100B00000041A09300412CE230E0209300404817C0
:100B10005907D0F428960FB6F894DEBF0FBECDBFAC
:100B2000DF91CF911F910F910895F80101911191DB
:100B300010930041009300412F5F3F4F8F01A21798
:100B4000B30798F70196E3CF9B01F9CF0F931F935B
:100B5000CF93DF93CDB7DEB728970FB6F894DEBFFB
:100B60000FBECDBFE7E6F2E017821682118610862F
:100B70001A821982808191810197482F9C838B83EF
:100B80001E821D8282819381019798878F830485BD
:100B9000158520E03A815C8160E07E8198850E9425
:100BA000A90428960FB6F894DEBF0FBECDBFDF9123
:100BB000CF911F910F910895CF93DF9386E080939B
:100BC000750080E8809374003F9A249A8FEC97E038
:100BD0000197F1F700C0000047988FE39CE9019767
:100BE000F1F700C00000479A9FEF2DEE82E0915090
:100BF00020408040E1F700C0000088E290E0809350
:100C0000004081E190E0809300409FEF26E781E083
:100C1000915020408040E1F700C0000081E090E06A
:100C20002BEC30E0209300408093004120EC30E03A
:100C30002093004028E036E23093004120930041A9
:100C400021EC30E040E150E020930040409300412F
:100C500025EC30E0209300402EE335E33093004153
:100C60002093004127EC30E045EB50E0209300401A
:100C70004093004126EF30E02093004080930041F4
:100C8000D0E0C0E0D0930041C09300418AE390E0FF
:100C900025E530E0809300402093004181E090E022
:100CA0000E94D6030E94A605E7E6F2E017821682AC
:100CB00011861086158614868FEF9FEF93878287A3
:100CC00089E290E0809300409FE728E381E0915023
:100CD00020408040E1F700C0000085E390E0809371
:100CE0000040C0930041EAE6F0E0808180628083AA
:100CF0002C9ADF91CF910895CF92DF92EF92FF92DD
:100D00000F931F93CF93DF93E82F80916F02909101
:100D10007002EA30D9F410926E0210926D020896B9
:100D20009093700280936F022091690230916A0261
:100D30008217930708F467C0DF91CF911F910F913D
:100D4000FF90EF90DF90CF900C94A605E052EF3526
:100D500008F059C020916D0230916E0289010C5F3C
:100D60001F4FAC01495F5F4F6BE270E06093004042
:100D70009093004180930041509300414093004183
:100D800065E0E602F0011124E856FF4F6AE2E62E24
:100D9000F12C7CE2C72ED12C02171307E8F56AE28A
:100DA00070E0609300403093004120930041309305
:100DB0000041209300412CE230E02093004048178E
:100DC000590708F053C080916D0290916E029C010A
:100DD0002A5F3F4F30936E0220936D020B96209155
:100DE0006702309168028217930768F010926E02D2
:100DF00010926D0280916F0290917002089690930C
:100E0000700280936F02DF91CF911F910F91FF903D
:100E1000EF90DF90CF900895E09200403093004132
:100E2000209300413093004120930041C092004044
:100E3000B491BC01A1E04617570720F42F5F3F4F44
:100E40003196AACFCA2FCB2361F0C0917102D09105
:100E50007202D0930041C09300416F5F7F4FAA0F91
:100E6000EACFC0917302D0917402F3CF2091730244
:100E700030917402309300412093004101969FCF3E
:100E80001F93CF93DF93EC0110E0FE01E10FF11D02
:100E90008081811104C0DF91CF911F9108950E943C
:100EA0007C061F5FF2CFE7E6F2E0978386837187C7
:100EB00060870895E7E6F2E0938782877587648705
:100EC00008951F93CF93DF93EC0170936E026093AC
:100ED0006D025093700240936F0210E0FE01E10F2B
:100EE000F11D8081811104C0DF91CF911F91089580
:100EF0000E947C061F5FF2CF80E880936100109211
:100F00006100279A0E94DC050E948B02E091150186
:100F100031E03E0F2DE03203D0011124AF5ABE4F15
:100F20008FEF9FEF12969C938E9311974BE150E0B9
:100F300060E070E013964D935D936D937C931697EC
:100F400017964D935D936D937C931A971C924BE586
:100F500051E01C965C934E931B9732E03E0F320398
:100F6000D0011124AF5ABE4F12969C938E931197C5
:100F70004FE450E060E070E013964D935D936D9305
:100F80007C93169717964D935D936D937C931A9768
:100F90001C9245E851E01C965C934E931B97ED5FC5
:100FA000E09315013E2F3203F0011124EF5AFE4F5A
:100FB000928381838CEA90E0A0E0B0E08383948305
:100FC000A583B68387839087A187B287108282EB3F
:100FD00091E09487838778942F9AFECF0E9402082D
:100FE0000C94E3080E94DC0858F00E94D50840F0F9
:100FF00029F45F3F29F00C94CC0851110C94170987
:101000000C94D2080E94F40868F39923B1F3552395
:1010100091F3951B550BBB27AA276217730784070B
:1010200038F09F5F5F4F220F331F441FAA1FA9F3A1
:1010300035D00E2E3AF0E0E832D091505040E6958F
:10104000001CCAF72BD0FE2F29D0660F771F881FF0
:10105000BB1F261737074807AB07B0E809F0BB0BE3
:10106000802DBF01FF2793585F4F3AF09E3F5105F7
:1010700078F00C94CC080C9417095F3FE4F3983E89
:10108000D4F3869577956795B795F7959F5FC9F7E0
:10109000880F911D9695879597F90895E1E0660F61
:1010A000771F881FBB1F621773078407BA0720F0DA
:1010B000621B730B840BBA0BEE1F88F7E095089543
:1010C0000E94FC0888F09F5798F0B92F9927B751D4
:1010D000B0F0E1F0660F771F881F991F1AF0BA95DC
:1010E000C9F714C0B13091F00E941609B1E008951B
:1010F0000C941609672F782F8827B85F39F0B93F0D
:10110000CCF3869577956795B395D9F73EF490958E
:101110008095709561957F4F8F4F9F4F0895E8940C
:1011200009C097FB3EF490958095709561957F4F2F
:101130008F4F9F4F9923A9F0F92F96E9BB279395DD
:10114000F695879577956795B795F111F8CFFAF4ED
:10115000BB0F11F460FF1BC06F5F7F4F8F4F9F4F1E
:1011600016C0882311F096E911C0772321F09EE87C
:10117000872F762F05C0662371F096E8862F70E0E2
:1011800060E02AF09A95660F771F881FDAF7880FBC
:101190009695879597F9089597F99F6780E870E08D
:1011A00060E008959FEF80EC089500240A941616DD
:1011B000170618060906089500240A941216130645
:1011C000140605060895092E0394000C11F48823D3
:1011D00052F0BB0F40F4BF2B11F460FF04C06F5FEF
:1011E0007F4F8F4F9F4F089557FD9058440F551FC5
:1011F00059F05F3F71F04795880F97FB991F61F099
:101200009F3F79F087950895121613061406551F0F
:10121000F2CF4695F1DF08C0161617061806991F7B
:10122000F1CF86957105610508940895E894BB2770
:0E12300066277727CB0197F90895F894FFCF32
:10123E00FF000000000000000000000000000000A1
:10124E000000000000FFFF000000AC0000004F0097
:10125E0000001B000000190000000000C8435B5492
:10126E00313C003E54315D005B54323C003E543202
:0E127E005D005B54333C003E54335D002D0098
:00000001FF
