:100000000C943A010C9459010C9459010C94590127
:100010000C9459010C9459010C9459010C945901F8
:100020000C9459010C9459010C9459010C945901E8
:100030000C9459010C9459010C9459010C945901D8
:100040000C9459010C9459010C9459010C945901C8
:100050000C9459010C9459010C9459010C945901B8
:100060000C9459010C9459010C9459010C945901A8
:100070000C9459010C9459010C9459010C94590198
:100080000C9459010C9459010C9459010C94590188
:100090000C9459010C945901000000000000005F0D
:1000A00000000003000300143E143E14242A7F2A9B
:1000B000124333086661364955225000050300009B
:1000C000001C2241000041221C0014083E081408B4
:1000D000083E0808005030000008080808080060C2
:1000E00060000020100804023E5149453E00040211
:1000F0007F00426151494622414949361814127F16
:100100001027454545393E494949320101710907E2
:100110003649494936264949493E003636000000ED
:10012000563600000814224100141414141400411F
:1001300022140802015109063E4159555E7E090903
:10014000097E7F494949363E414141227F41414133
:100150003E7F494949417F090909013E4141493AE8
:100160007F0808087F00417F4100304040403F7FCA
:10017000081422417F404040407F020C027F7F02F2
:1001800004087F3E4141413E7F090909061E2121A5
:10019000215E7F09090976264949493201017F011B
:1001A000013F4040403F1F2040201F7F2010207F04
:1001B00041221C224107087008076151494543004C
:1001C0007F41000002040810200000417F0004026B
:1001D0000102044040404040000102040020545409
:1001E00054787F4444443838444444443844444474
:1001F0007F385454541804047E0505085454543C64
:100200007F0804047800447D40002040443D007F86
:100210001028440000417F40007C047804787C086A
:1002200004047838444444387C1414140808141422
:10023000147C007C080404485454542004043F44B3
:10024000443C4040207C1C2040201C3C4030403C32
:1002500044281028440C5050503C4464544C4400F2
:100260000836414100007F0000414136080002018C
:100270000204020011241FBECFEFD0E2DEBFCDBFCB
:1002800011E0A0E0B1E0EEE2FDE000E00BBF02C053
:1002900007900D92A233B107D9F721E0A2E3B1E0B4
:1002A00001C01D92A034B207E1F70E9400050C9432
:1002B00095060C94000093E89093B00091E0909321
:1002C000B1008093B30008959C019093370180930F
:1002D000360186E390E08093004021153105A9F5B1
:1002E00080EF90E0909333018093320180E491E0BD
:1002F000909335018093340188E490E0809300412D
:100300008AE290E08093004030E020E030930041AA
:100310002093004180913201909133010197909395
:100320000041809300418BE290E080930040309345
:100330000041209300418091340190913501019753
:10034000909300418093004108952130310579F464
:1003500080E491E0909333018093320180EF90E04C
:10036000909335018093340188EE90E0C7CF22301E
:10037000310579F480EF90E090933301809332015E
:1003800080E491E0909335018093340188E890E017
:10039000B5CF2330310509F0B3CF80E491E09093DD
:1003A00033018093320180EF90E090933501809388
:1003B000340188E290E0A2CFCF93DF9300D000D049
:1003C0000F92CDB7DEB7873708F044C0883008F405
:1003D00044C08D3308F03FC08F3108F042C08031F7
:1003E00008F442C022E02D8321EB30E0209300404E
:1003F0009D8190930041282F30E050E040E0298318
:100400003A834B835C83CA01B9010E9409069B01B0
:10041000AC0160E070E080EF94E40E9466056983BF
:100420007A838B839C8369817A818B819C810E94F2
:10043000D80570E00D8002C0759567950A94E2F7C3
:10044000609300410F900F900F900F900F90DF91ED
:10045000CF91089586E71D82C7CF88E033E03D83C2
:10046000C3CF41E04D83C0CF53E05D83BDCF0F9339
:100470001F93CF93DF93CDB7DEB728970FB6F894CD
:10048000DEBF0FBECDBF29833A834B835C836D8370
:100490007E838F839887A801E981FA812B813C8133
:1004A0006D817E818F819885AAE2B0E0A0930040A3
:1004B000F0930041E09300413093004120930041CC
:1004C000ABE2B0E0A0930040709300416093004124
:1004D0009093004180930041ACE2B0E0A0930040D3
:1004E0002F5F3F4F2E1B3F0B0196861B970B281744
:1004F000390750F5E82FE770E29FB001E39F700DD8
:100500001124F3E096958795FA95E1F7829FF00123
:10051000839FF00D1124962F9770915038F5CB01E1
:1005200023E0969587952A95E1F78E0F9F1F0097F8
:1005300011F528960FB6F894DEBF0FBECDBFDF9140
:10054000CF911F910F910895E22FE770E89FB001BE
:10055000E99F700D1124E3E036952795EA95E1F7C0
:10056000289FF001299FF00D1124D5CF5093004111
:1005700040930041D2CF50930041409300415093AB
:1005800000414093004150930041409300415093FB
:1005900000414093004150930041409300415093EB
:1005A00000414093004150930041409300415093DB
:1005B0000041409300410197BACF0F931F93CF930F
:1005C000DF93CDB7DEB728970FB6F894DEBF0FBE26
:1005D000CDBF29833A834B835C836D837E838F8376
:1005E000988789819A814B815C816D817E81AF8101
:1005F000B8852AE230E02093004090930041809338
:10060000004150930041409300412BE230E02093A1
:1006100000407093004160930041B0930041A0936B
:1006200000412CE230E02093004048175907D0F4F5
:1006300028960FB6F894DEBF0FBECDBFDF91CF91E5
:100640001F910F910895F8010191119110930041AC
:10065000009300412F5F3F4F8F01A217B30798F718
:100660000196E3CF9B01F9CF0F931F93CF93DF93B5
:10067000CDB7DEB728970FB6F894DEBF0FBECDBF5B
:10068000E2E3F1E017821682118610861A8219823F
:10069000808191810197482F9C838B831E821D82CC
:1006A00082819381019798878F830485158520E047
:1006B0003A815C8160E07E8198850E9437022896AD
:1006C0000FB6F894DEBF0FBECDBFDF91CF911F9163
:1006D0000F910895CF93DF9386E08093750080E8B3
:1006E000809374003F9A249A8FEC97E00197F1F77A
:1006F00000C0000047988FE39CE90197F1F700C024
:100700000000479A9FEF2DEE82E0915020408040FC
:10071000E1F700C0000088E290E08093004081E1B2
:1007200090E0809300409FEF26E781E091502040C9
:100730008040E1F700C0000081E090E02BEC30E069
:10074000209300408093004120EC30E02093004053
:1007500028E036E2309300412093004121EC30E064
:1007600040E150E0209300404093004125EC30E010
:10077000209300402EE335E3309300412093004165
:1007800027EC30E045EB50E02093004040930041DF
:1007900026EF30E02093004080930041D0E0C0E09D
:1007A000D0930041C09300418AE390E025E530E01A
:1007B000809300402093004181E090E00E9464011A
:1007C0000E943403E2E3F1E017821682118610865C
:1007D000158614868FEF9FEF9387828789E290E0DA
:1007E000809300409FE728E381E0915020408040C3
:1007F000E1F700C0000085E390E080930040C093E3
:100800000041EAE6F0E08081806280832C9ADF91EB
:10081000CF910895CF92DF92EF92FF920F931F93A3
:10082000CF93DF93E82F80913A0190913B01EA301A
:10083000D9F410923901109238010A9690933B0135
:1008400080933A012091340130913501821793074A
:1008500008F464C0DF91CF911F910F91FF90EF904A
:10086000DF90CF900C943403E052EF3508F056C07F
:10087000209138013091390189010C5F1F4FAC0183
:10088000495F5F4F6BE270E06093004090930041DE
:1008900080930041509300414093004165E0E6029F
:1008A000F0011124E856FF4F6AE2E62EF12C7CE2BB
:1008B000C72ED12C02171307D0F56AE270E06093BF
:1008C0000040309300412093004130930041209339
:1008D00000412CE230E0209300404817590708F00F
:1008E00050C080913801909139010696909339015A
:1008F00080933801209132013091330182179307A0
:1009000068F0109239011092380180913A0190916B
:100910003B01089690933B0180933A01DF91CF9180
:100920001F910F91FF90EF90DF90CF900895E0928C
:1009300000403093004120930041309300412093C8
:100940000041C0920040B491BC01A1E04617570796
:1009500020F42F5F3F4F3196ADCFCA2FCB2361F0EC
:10096000C0913C01D0913D01D0930041C093004122
:100970006F5F7F4FAA0FEACFC0913E01D0913F0138
:10098000F3CF20913E0130913F01309300412093FD
:1009900000410196A2CF1F93CF93DF93EC0110E0AB
:1009A000FE01E10FF11D8081811104C0DF91CF9123
:1009B0001F9108950E940A041F5FF2CF1F93CF93E7
:1009C000DF93EC01709339016093380150933B0140
:1009D00040933A0110E0FE01E10FF11D8081811189
:1009E00004C0DF91CF911F9108950E940A041F5FF8
:1009F000F2CFE1E6F0E080E8808310820C946A0395
:100A00000E94F90480E091E00E94CB0484E191E02F
:100A10000E94CB048FE191E00E94CB0480E091E042
:100A20000E94CB0484E191E00E94CB048FE191E02D
:100A30000E94CB0480E091E00E94CB0484E191E02D
:100A40000E94CB048FE191E00E94CB0480E091E012
:100A50000E94CB0484E191E00E94CB048FE191E0FD
:100A60000E94CB0480E091E00E94CB0484E191E0FD
:100A70000E94CB048FE191E00E94CB0480E091E0E2
:100A80000E94CB0484E191E00E94CB048FE191E0CD
:100A90000E94CB0480E091E00E94CB0484E191E0CD
:100AA0000E94CB048FE191E00E94CB0480E091E0B2
:100AB0000E94CB0484E191E00E94CB048FE191E09D
:100AC0000E94CB048DE291E00C94CB040E947A0545
:100AD0000C945B060E94540658F00E944D0640F0AC
:100AE00029F45F3F29F00C94440651110C948F06B1
:100AF0000C944A060E946C0668F39923B1F35523BF
:100B000091F3951B550BBB27AA2762177307840720
:100B100038F09F5F5F4F220F331F441FAA1FA9F3B6
:100B200035D00E2E3AF0E0E832D091505040E695A4
:100B3000001CCAF72BD0FE2F29D0660F771F881F05
:100B4000BB1F261737074807AB07B0E809F0BB0BF8
:100B5000802DBF01FF2793585F4F3AF09E3F51050C
:100B600078F00C9444060C948F065F3FE4F3983EB3
:100B7000D4F3869577956795B795F7959F5FC9F7F5
:100B8000880F911D9695879597F90895E1E0660F76
:100B9000771F881FBB1F621773078407BA0720F0EF
:100BA000621B730B840BBA0BEE1F88F7E095089558
:100BB0000E94740688F09F5798F0B92F9927B75173
:100BC000B0F0E1F0660F771F881F991F1AF0BA95F1
:100BD000C9F714C0B13091F00E948E06B1E00895BB
:100BE0000C948E06672F782F8827B85F39F0B93FAD
:100BF000CCF3869577956795B395D9F73EF49095A4
:100C00008095709561957F4F8F4F9F4F0895E89421
:100C100009C097FB3EF490958095709561957F4F44
:100C20008F4F9F4F9923A9F0F92F96E9BB279395F2
:100C3000F695879577956795B795F111F8CFFAF402
:100C4000BB0F11F460FF1BC06F5F7F4F8F4F9F4F33
:100C500016C0882311F096E911C0772321F09EE891
:100C6000872F762F05C0662371F096E8862F70E0F7
:100C700060E02AF09A95660F771F881FDAF7880FD1
:100C80009695879597F9089597F99F6780E870E0A2
:100C900060E008959FEF80EC089500240A941616F2
:100CA000170618060906089500240A94121613065A
:100CB000140605060895092E0394000C11F48823E8
:100CC00052F0BB0F40F4BF2B11F460FF04C06F5F04
:100CD0007F4F8F4F9F4F089557FD9058440F551FDA
:100CE00059F05F3F71F04795880F97FB991F61F0AE
:100CF0009F3F79F087950895121613061406551F25
:100D0000F2CF4695F1DF08C0161617061806991F90
:100D1000F1CF86957105610508940895E894BB2785
:0E0D200066277727CB0197F90895F894FFCF47
:100D2E0048656C6C6F20536F757468616D70746F6D
:100D3E006E210A0048656C6C6F20554B210A0048E5
:100D4E00656C6C6F20576F726C64210A004F6B617B
:020D5E0079001A
:00000001FF
