:100000000C944C000C945E000C945E000C945E000A
:100010000C945E000C945E000C945E000C945E00E8
:100020000C945E000C945E000C945E000C945E00D8
:100030000C945E000C945E000C945E000C945E00C8
:100040000C945E000C945E000C945E000C945E00B8
:100050000C945E000C9477000C945E000C945E008F
:100060000C945E000C945E000C945E000C945E0098
:100070000C945E000C945E000C945E000C945E0088
:100080000C945E000C945E000C945E000C945E0078
:100090000C945E000C945E0011241FBECFEFD0E2E2
:1000A000DEBFCDBF21E0A0E0B1E001C01D92A230D3
:1000B000B207E1F70E94A1000C94C0000C9400006C
:1000C000E1E6F0E080E880831082279A2F986D980F
:1000D000759A6C98749A82E084BD83E085BD8DE743
:1000E00087BDEEE6F0E080818260808308958F9383
:1000F0008FB78F939F938CB193E084FF90E085FF3F
:1001000002C081E0982780910101891B80FF09C00E
:10011000909301019091000182709150890F80931A
:1001200000019F918F918FBF8F911895F8948091C6
:100130000001909100019170909300017894859551
:1001400008950E9460007894CFE7DC2F8FE097E25B
:100150000197F1F700C000000E949600082E000CE5
:10016000990B8C0F911DCFEF8F3F910509F024F46F
:10017000C82F02970CF4C2E0D15041F71F9AE5CF87
:04018000F894FFCF21
:00000001FF
